:100000000C94EB000C9400000C9400000C94000085
:100010000C9400000C9400000C9400000C94000060
:100020000C9400000C9400000C9400000C94000050
:100030000C9400000C9400000C9400000C94000040
:100040000C9400000C9400000C9400000C94000030
:040050000C9400000C
:1001D600BFE5BDBFB8E0BEBF0E942F01DADFEEDF8C
:0601E600B9DFFECFFFCFE0
:10019800BAB3BF77BABBB1B3BB7FB1BBB3E3B9B92D
:1001A800B0E0B0BD88DF25E01FE002EF0A95F1F767
:0A01B8001A95E1F72A95D1F7089592
:1000BE00B6E3B093A300B0E0B093A400BAE2B0935D
:1000CE00A500B0E0B093A600B7E4B093A700B0E0EF
:1000DE00B093A800B2E4B093A100B0E0B093A20038
:1000EE00B1B3BE7FB1BBB1B3B260B1BB0AB10861EF
:0800FE000AB9B6E8B0BD08958F
:1001C2002F923F92BDE22B2EB2E03B2EBEDF3F903C
:0401D2002F900895CD
:04014C00A5DF08958E
:100098009101285E3F4FF901059115910093A90040
:1000A8001093AA00F9013E96059115910093AB00B3
:0600B8001093AC00089556
:10015A002F923F92F0DF002329F0B0E62B2EB0E079
:10016A003B2ED2DFCBDF002329F0B0E82B2EB0E004
:10017A003B2ECADF29E01EE105EE0A95F1F71A9532
:0E018A00E1F72A95D1F700003F902F900895DD
:0C014000E091AB00F091AC00099508952F
:0A00620009B2002707FC039508957A
:0A00580000B2002702FC0395089592
:040054000CB108954E
:0A008E000BB0002707FC039508954E
:0A0084000BB0002706FC0395089559
:1001120010E0F1010081202F022F003079F03F9290
:100122002F92202EA2DF2F903F90012F0F5F102FD2
:0E013200E02FF0E0E20DF31D0081EFCF089505
:10006C00BBB1B5FD01C0FCCFBBB1B6FF03C0BBB18A
:08007C00B064BBB92CB8089573
:0C010600E091AB00F091AC000995089569
:0A01500005900D920197E1F7089564
:10025E00A0E6B0E0ECEEF1E081E490E00E94A800B0
:02026E000895F1
:10022D0000000000000000000000000000000000C1
:10023D000000000000000000310000000000000080
:10024D000000000000002C00000000000000000075
:1001EC0054616D706572203220636C69636B206999
:1001FC007320696E204F4E2073746174650D0A0074
:10020C0054616D706572203220636C69636B206978
:10021C007320696E204F46462073746174650D0A15
:01022C0000D1
:00000001FF
