:1000000025EF01F00000000000EF00F0000000000C
:0A0010000000000000000000F3D71C
:0A001C00000E9EBA010E006E1200E5
:0A002600000EACB2010E006E1200D5
:100030001DCF01F00F0122A302D02299228901C015
:0400400000F01200BA
:0A004400000E80B0010E006E1200E5
:0A004E00000E81B0010E006E1200DA
:10005800AECF01F0ABA202D0AB98AB8801C000F0E4
:02006800120084
:0C006A00000E0F0121B3010E006E120009
:0A007600000EA4BA010E006E120085
:10008000300E00017425006E000E7521016E000E09
:100090007621026E00C0F6FF01C0F7FF02C0F8FF34
:1000A0000900F5CF61F00900F5CF62F00900F5CF46
:1000B00063F00900F5CF64F01C0E0024F66E000E0C
:1000C0000120F76E000E0220F86E0900F5CF5AF0FD
:1000D0000900F5CF5BF00900F5CF5CF00900F5CF22
:0400E0005DF01200BD
:1000E400F250026EF29E0500FF6A0150FE6E00504F
:0800F400FD6E02BEF28E120047
:0E00FC00ACB202D00000FCD774C0ADFF120001
:10010A0071C074F072C075F073C076F0B4DF12007B
:10011A00FC0E566E000E576E740E586E000E596E17
:10012A00580E0001696F000E6A6F000E6B6F000EA9
:10013A006C6F1C0E6D6F000E6E6F000E6F6F000EEF
:10014A00706F260E656F000E666F000E676F000EE9
:10015A00686FAC8A900EAB6E948E949C9EAA03D064
:08016A00AECF00F0FBD712003C
:0C0172005AC000F05BC001F0B4DF1200C6
:10017E000001716B5EC0E9FF5FC0EAFFEECF60F079
:10018E006051000A0EE060C074F0B1DF0001712B07
:10019E0071515E24E96E000E5F20EA6EEECF60F0C4
:0401AE00EFD7120075
:0C01B2005AC000F05BC001F094DF1200A6
:1001BE000900F5CFE6FF0006FBE10106F9E11200AA
:1001CE000F01256B246B236B92809380670EAF6EAD
:1001DE00AC949CDF090E0B6E1E0E0C6EE40E0D6EB3
:1001EE000D2EFED70C2EFCD70B2EFAD700001200C8
:1001FE00D9DF005205E0150E5E6E000E5F6EB8DFA1
:10020E00B1DF005205E0350E5E6E000E5F6EB0DFA0
:10021E00110E0B6E3C0E0C6ECB0E0D6E0D2EFED710
:0A022E000C2EFCD70B2EFAD712009D
:10023800580E0001716F020E726F000E736F61DF4E
:020248001200A2
:0E024A007DEC01F0BFDFF3DFD5DFFED7FFD77D
:1002FA0010EE15F0410E006E010E016EB80EF66E8C
:0E030A00020EF76E000EF86EDFEC00F012002F
:100258000000000000000000000000000000000096
:100268000000000000000000000000000000000086
:100278000000000000000000000000000000000076
:100288004400000000000000000000000000000022
:100298000000000000000000000000004E00000008
:1002A8000000000000000000000000000000000046
:1002B80054616D706572203220636C69636B2069CC
:1002C8007320696E204F4E2073746174650D0A00A7
:1002D80054616D706572203220636C69636B2069AC
:1002E8007320696E204F46462073746174650D0A49
:0102F8000005
:020000040030CA
:0E00000015137F7CF98B91FFFFC0FFE0FF40DE
:00000001FF
